{"abi":[{"type":"function","name":"commentIdIncrement","inputs":[],"outputs":[{"name":"","type":"uint256","internalType":"uint256"}],"stateMutability":"view"},{"type":"function","name":"comments","inputs":[{"name":"","type":"uint256","internalType":"uint256"}],"outputs":[{"name":"id","type":"uint256","internalType":"uint256"},{"name":"title","type":"string","internalType":"string"},{"name":"description","type":"string","internalType":"string"},{"name":"spoil","type":"bool","internalType":"bool"},{"name":"likes","type":"uint256","internalType":"uint256"},{"name":"timestamp","type":"uint256","internalType":"uint256"}],"stateMutability":"view"},{"type":"function","name":"compareStringsbyBytes","inputs":[{"name":"s1","type":"string","internalType":"string"},{"name":"s2","type":"string","internalType":"string"}],"outputs":[{"name":"","type":"bool","internalType":"bool"}],"stateMutability":"pure"},{"type":"function","name":"createComment","inputs":[{"name":"_postId","type":"uint256","internalType":"uint256"},{"name":"_title","type":"string","internalType":"string"},{"name":"_description","type":"string","internalType":"string"},{"name":"_spoil","type":"bool","internalType":"bool"}],"outputs":[{"name":"","type":"uint256","internalType":"uint256"}],"stateMutability":"nonpayable"},{"type":"function","name":"createPoll","inputs":[{"name":"_postId","type":"uint256","internalType":"uint256"},{"name":"_question","type":"string","internalType":"string"},{"name":"_option1","type":"string","internalType":"string"},{"name":"_option2","type":"string","internalType":"string"}],"outputs":[{"name":"","type":"uint256","internalType":"uint256"}],"stateMutability":"nonpayable"},{"type":"function","name":"createPost","inputs":[{"name":"_title","type":"string","internalType":"string"},{"name":"_description","type":"string","internalType":"string"},{"name":"_spoil","type":"bool","internalType":"bool"}],"outputs":[{"name":"","type":"uint256","internalType":"uint256"}],"stateMutability":"nonpayable"},{"type":"function","name":"downVoteComment","inputs":[{"name":"_commentId","type":"uint256","internalType":"uint256"}],"outputs":[],"stateMutability":"nonpayable"},{"type":"function","name":"downVotePost","inputs":[{"name":"_postId","type":"uint256","internalType":"uint256"}],"outputs":[],"stateMutability":"nonpayable"},{"type":"function","name":"getComment","inputs":[{"name":"_commentId","type":"uint256","internalType":"uint256"}],"outputs":[{"name":"","type":"tuple","internalType":"struct Forum.Comment","components":[{"name":"id","type":"uint256","internalType":"uint256"},{"name":"title","type":"string","internalType":"string"},{"name":"description","type":"string","internalType":"string"},{"name":"spoil","type":"bool","internalType":"bool"},{"name":"likes","type":"uint256","internalType":"uint256"},{"name":"timestamp","type":"uint256","internalType":"uint256"}]}],"stateMutability":"view"},{"type":"function","name":"getCommentsFromPost","inputs":[{"name":"_postId","type":"uint256","internalType":"uint256"}],"outputs":[{"name":"","type":"uint256[]","internalType":"uint256[]"}],"stateMutability":"view"},{"type":"function","name":"getPoll","inputs":[{"name":"_pollId","type":"uint256","internalType":"uint256"}],"outputs":[{"name":"","type":"tuple","internalType":"struct Forum.Poll","components":[{"name":"id","type":"uint256","internalType":"uint256"},{"name":"question","type":"string","internalType":"string"},{"name":"option1","type":"string","internalType":"string"},{"name":"option2","type":"string","internalType":"string"},{"name":"option1Counter","type":"uint256","internalType":"uint256"},{"name":"option2Counter","type":"uint256","internalType":"uint256"}]}],"stateMutability":"view"},{"type":"function","name":"getPollFromPost","inputs":[{"name":"_postId","type":"uint256","internalType":"uint256"}],"outputs":[{"name":"","type":"tuple","internalType":"struct Forum.Poll","components":[{"name":"id","type":"uint256","internalType":"uint256"},{"name":"question","type":"string","internalType":"string"},{"name":"option1","type":"string","internalType":"string"},{"name":"option2","type":"string","internalType":"string"},{"name":"option1Counter","type":"uint256","internalType":"uint256"},{"name":"option2Counter","type":"uint256","internalType":"uint256"}]}],"stateMutability":"view"},{"type":"function","name":"getPost","inputs":[{"name":"_postId","type":"uint256","internalType":"uint256"}],"outputs":[{"name":"","type":"tuple","internalType":"struct Forum.Post","components":[{"name":"id","type":"uint256","internalType":"uint256"},{"name":"title","type":"string","internalType":"string"},{"name":"description","type":"string","internalType":"string"},{"name":"spoil","type":"bool","internalType":"bool"},{"name":"likes","type":"uint256","internalType":"uint256"},{"name":"timestamp","type":"uint256","internalType":"uint256"}]}],"stateMutability":"view"},{"type":"function","name":"getPostsFromAddress","inputs":[{"name":"_user","type":"address","internalType":"address"}],"outputs":[{"name":"","type":"uint256[]","internalType":"uint256[]"}],"stateMutability":"view"},{"type":"function","name":"pollIdIncrement","inputs":[],"outputs":[{"name":"","type":"uint256","internalType":"uint256"}],"stateMutability":"view"},{"type":"function","name":"polls","inputs":[{"name":"","type":"uint256","internalType":"uint256"}],"outputs":[{"name":"id","type":"uint256","internalType":"uint256"},{"name":"question","type":"string","internalType":"string"},{"name":"option1","type":"string","internalType":"string"},{"name":"option2","type":"string","internalType":"string"},{"name":"option1Counter","type":"uint256","internalType":"uint256"},{"name":"option2Counter","type":"uint256","internalType":"uint256"}],"stateMutability":"view"},{"type":"function","name":"postIdIncrement","inputs":[],"outputs":[{"name":"","type":"uint256","internalType":"uint256"}],"stateMutability":"view"},{"type":"function","name":"postToPoll","inputs":[{"name":"","type":"uint256","internalType":"uint256"}],"outputs":[{"name":"","type":"uint256","internalType":"uint256"}],"stateMutability":"view"},{"type":"function","name":"posts","inputs":[{"name":"","type":"uint256","internalType":"uint256"}],"outputs":[{"name":"id","type":"uint256","internalType":"uint256"},{"name":"title","type":"string","internalType":"string"},{"name":"description","type":"string","internalType":"string"},{"name":"spoil","type":"bool","internalType":"bool"},{"name":"likes","type":"uint256","internalType":"uint256"},{"name":"timestamp","type":"uint256","internalType":"uint256"}],"stateMutability":"view"},{"type":"function","name":"upVoteComment","inputs":[{"name":"_commentId","type":"uint256","internalType":"uint256"}],"outputs":[],"stateMutability":"nonpayable"},{"type":"function","name":"upVotePollOption","inputs":[{"name":"_postId","type":"uint256","internalType":"uint256"},{"name":"option","type":"string","internalType":"string"}],"outputs":[],"stateMutability":"nonpayable"},{"type":"function","name":"upVotePost","inputs":[{"name":"_postId","type":"uint256","internalType":"uint256"}],"outputs":[],"stateMutability":"nonpayable"},{"type":"event","name":"PostSubmitted","inputs":[{"name":"userAddress","type":"address","indexed":true,"internalType":"address"},{"name":"post","type":"tuple","indexed":false,"internalType":"struct Forum.Post","components":[{"name":"id","type":"uint256","internalType":"uint256"},{"name":"title","type":"string","internalType":"string"},{"name":"description","type":"string","internalType":"string"},{"name":"spoil","type":"bool","internalType":"bool"},{"name":"likes","type":"uint256","internalType":"uint256"},{"name":"timestamp","type":"uint256","internalType":"uint256"}]}],"anonymous":false}],"bytecode":{"object":"0x60806040526001600055600180556001600255348015601d57600080fd5b50611c1d8061002d6000396000f3fe608060405234801561001057600080fd5b50600436106101425760003560e01c80635fd8cf12116100b85780638ebb4c151161007c5780638ebb4c15146102b8578063ac2f0074146102cb578063bc8fd685146102f0578063c250bd8114610303578063c60fa0fa14610316578063e9a734ff1461032957600080fd5b80635fd8cf12146102565780636cc3f3c61461025f5780637e9545b41461027f57806387bcfd68146102925780638e07bba2146102a557600080fd5b806321828f821161010a57806321828f82146101e157806324844ea3146101f457806328fba232146102075780633ceb7c861461021a57806340288e1c1461022357806340731c241461024357600080fd5b80630800e300146101475780630b1e7f83146101705780630e98745e14610195578063138c40d1146101ac5780631a8cbcaa146101c1575b600080fd5b61015a6101553660046113d3565b61034c565b60405161016791906114a1565b60405180910390f35b61018361017e3660046113d3565b610554565b604051610167969594939291906114bb565b61019e60025481565b604051908152602001610167565b6101bf6101ba3660046113d3565b61069f565b005b6101d46101cf3660046113d3565b610751565b6040516101679190611505565b6101bf6101ef3660046113d3565b6109cc565b6101bf6102023660046113d3565b610a3e565b6101d46102153660046113d3565b610a81565b61019e60015481565b6102366102313660046113d3565b610afd565b6040516101679190611587565b61015a6102513660046113d3565b610b81565b61019e60005481565b61019e61026d3660046113d3565b60076020526000908152604090205481565b61019e61028d366004611682565b610c16565b61019e6102a0366004611703565b610d30565b6101bf6102b33660046113d3565b610e37565b6101836102c63660046113d3565b610e78565b6102de6102d93660046113d3565b610e9a565b6040516101679695949392919061179e565b6101bf6102fe3660046117f3565b611067565b61019e610311366004611839565b611235565b6102366103243660046118b0565b61130f565b61033c6103373660046118d9565b611379565b6040519015158152602001610167565b6103876040518060c0016040528060008152602001606081526020016060815260200160001515815260200160008152602001600081525090565b6002548211156103de5760405162461bcd60e51b815260206004820152601760248201527f436f6d6d656e7420646f6573206e6f742065786973742100000000000000000060448201526064015b60405180910390fd5b600660008381526020019081526020016000206040518060c0016040529081600082015481526020016001820180546104169061192a565b80601f01602080910402602001604051908101604052809291908181526020018280546104429061192a565b801561048f5780601f106104645761010080835404028352916020019161048f565b820191906000526020600020905b81548152906001019060200180831161047257829003601f168201915b505050505081526020016002820180546104a89061192a565b80601f01602080910402602001604051908101604052809291908181526020018280546104d49061192a565b80156105215780601f106104f657610100808354040283529160200191610521565b820191906000526020600020905b81548152906001019060200180831161050457829003601f168201915b5050509183525050600382015460ff16151560208201526004820154604082015260059091015460609091015292915050565b600460205260009081526040902080546001820180549192916105769061192a565b80601f01602080910402602001604051908101604052809291908181526020018280546105a29061192a565b80156105ef5780601f106105c4576101008083540402835291602001916105ef565b820191906000526020600020905b8154815290600101906020018083116105d257829003601f168201915b5050505050908060020180546106049061192a565b80601f01602080910402602001604051908101604052809291908181526020018280546106309061192a565b801561067d5780601f106106525761010080835404028352916020019161067d565b820191906000526020600020905b81548152906001019060200180831161066057829003601f168201915b5050505060038301546004840154600590940154929360ff9091169290915086565b6002548111156106c15760405162461bcd60e51b81526004016103d590611964565b600081815260066020526040902060048101546106df9060016119a8565b6004820155600082815260066020526040902081548155819060018082019061070a90840182611a0a565b5060028181019061071d90840182611a0a565b50600382810154908201805460ff191660ff9092161515919091179055600480830154908201556005918201549101555050565b61078a6040518060c001604052806000815260200160608152602001606081526020016060815260200160008152602001600081525090565b6001548211156107d35760405162461bcd60e51b8152602060048201526014602482015273506f6c6c20646f6573206e6f742065786973742160601b60448201526064016103d5565b600560008381526020019081526020016000206040518060c00160405290816000820154815260200160018201805461080b9061192a565b80601f01602080910402602001604051908101604052809291908181526020018280546108379061192a565b80156108845780601f1061085957610100808354040283529160200191610884565b820191906000526020600020905b81548152906001019060200180831161086757829003601f168201915b5050505050815260200160028201805461089d9061192a565b80601f01602080910402602001604051908101604052809291908181526020018280546108c99061192a565b80156109165780601f106108eb57610100808354040283529160200191610916565b820191906000526020600020905b8154815290600101906020018083116108f957829003601f168201915b5050505050815260200160038201805461092f9061192a565b80601f016020809104026020016040519081016040528092919081815260200182805461095b9061192a565b80156109a85780601f1061097d576101008083540402835291602001916109a8565b820191906000526020600020905b81548152906001019060200180831161098b57829003601f168201915b50505050508152602001600482015481526020016005820154815250509050919050565b6000548111156109ee5760405162461bcd60e51b81526004016103d590611964565b600081815260046020819052604090912090810154610a0e9060016119a8565b60048083019190915560008381526020919091526040902081548155819060018082019061070a90840182611a0a565b600054811115610a605760405162461bcd60e51b81526004016103d590611964565b600081815260046020819052604090912090810154610a0e90600190611ae9565b610aba6040518060c001604052806000815260200160608152602001606081526020016060815260200160008152602001600081525090565b600054821115610adc5760405162461bcd60e51b81526004016103d590611964565b60008281526007602052604081205490610af582610751565b949350505050565b6060600054821115610b215760405162461bcd60e51b81526004016103d590611964565b60008281526008602090815260409182902080548351818402810184019094528084529091830182828015610b7557602002820191906000526020600020905b815481526020019060010190808311610b61575b50505050509050919050565b610bbc6040518060c0016040528060008152602001606081526020016060815260200160001515815260200160008152602001600081525090565b600054821115610bde5760405162461bcd60e51b81526004016103d590611964565b600460008381526020019081526020016000206040518060c0016040529081600082015481526020016001820180546104169061192a565b60008054851115610c395760405162461bcd60e51b81526004016103d590611964565b6002805460009182610c4a83611afc565b909155506040805160c081018252828152602080820189815282840189905287151560608401526000608084018190524260a08501528581526006909252929020815181559151929350916001820190610ca49082611b15565b5060408201516002820190610cb99082611b15565b50606082015160038201805460ff19169115159190911790556080820151600482015560a0909101516005909101556000958652600860209081526040808820805460018181018355918a52838a2001849055338952600a8352908820805491820181558852962090950185905550929392505050565b60008054851115610d535760405162461bcd60e51b81526004016103d590611964565b6001805460009182610d6483611afc565b909155506040805160c08101825282815260208082018981528284018990526060830188905260006080840181905260a084018190528581526005909252929020815181559151929350916001820190610dbe9082611b15565b5060408201516002820190610dd39082611b15565b5060608201516003820190610de89082611b15565b506080820151600482015560a0909101516005909101556000868152600760209081526040808320849055338352600a8252822080546001810182559083529120018190559050949350505050565b600254811115610e595760405162461bcd60e51b81526004016103d590611964565b600081815260066020526040902060048101546106df90600190611ae9565b600660205260009081526040902080546001820180549192916105769061192a565b60056020526000908152604090208054600182018054919291610ebc9061192a565b80601f0160208091040260200160405190810160405280929190818152602001828054610ee89061192a565b8015610f355780601f10610f0a57610100808354040283529160200191610f35565b820191906000526020600020905b815481529060010190602001808311610f1857829003601f168201915b505050505090806002018054610f4a9061192a565b80601f0160208091040260200160405190810160405280929190818152602001828054610f769061192a565b8015610fc35780601f10610f9857610100808354040283529160200191610fc3565b820191906000526020600020905b815481529060010190602001808311610fa657829003601f168201915b505050505090806003018054610fd89061192a565b80601f01602080910402602001604051908101604052809291908181526020018280546110049061192a565b80156110515780601f1061102657610100808354040283529160200191611051565b820191906000526020600020905b81548152906001019060200180831161103457829003601f168201915b5050505050908060040154908060050154905086565b6000548211156110895760405162461bcd60e51b81526004016103d590611964565b60008281526007602090815260408083205483526005909152902060028101805461113c91906110b89061192a565b80601f01602080910402602001604051908101604052809291908181526020018280546110e49061192a565b80156111315780601f1061110657610100808354040283529160200191611131565b820191906000526020600020905b81548152906001019060200180831161111457829003601f168201915b505050505083611379565b1561115d5760048101805490600061115383611afc565b91905055506111c3565b61116f8160030180546110b89061192a565b156111865760058101805490600061115383611afc565b60405162461bcd60e51b81526020600482015260126024820152712737ba1030903b30b634b21037b83a34b7b760711b60448201526064016103d5565b6000838152600760209081526040808320548352600590915290208154815581906001808201906111f690840182611a0a565b5060028181019061120990840182611a0a565b5060038181019061121c90840182611a0a565b5060048281015490820155600591820154910155505050565b600080548190818061124683611afc565b909155506040805160c081018252828152602080820189815282840189905287151560608401526000608084018190524260a085015285815260049092529290208151815591519293509160018201906112a09082611b15565b50604082015160028201906112b59082611b15565b5060608201516003828101805460ff1916921515929092179091556080830151600483015560a090920151600590910155336000908152602091825260408120805460018101825590825291902001819055949350505050565b6001600160a01b038116600090815260036020908152604091829020805483518184028101840190945280845260609392830182828015610b755760200282019190600052602060002090815481526020019060010190808311610b615750505050509050919050565b60008160405160200161138c9190611bcb565b60405160208183030381529060405280519060200120836040516020016113b39190611bcb565b604051602081830303815290604052805190602001201490505b92915050565b6000602082840312156113e557600080fd5b5035919050565b60005b838110156114075781810151838201526020016113ef565b50506000910152565b600081518084526114288160208601602086016113ec565b601f01601f19169290920160200192915050565b805182526000602082015160c0602085015261145b60c0850182611410565b9050604083015184820360408601526114748282611410565b9150506060830151151560608501526080830151608085015260a083015160a08501528091505092915050565b6020815260006114b4602083018461143c565b9392505050565b86815260c0602082015260006114d460c0830188611410565b82810360408401526114e68188611410565b95151560608401525050608081019290925260a0909101529392505050565b60208152815160208201526000602083015160c0604084015261152b60e0840182611410565b90506040840151601f198483030160608501526115488282611410565b9150506060840151601f198483030160808501526115668282611410565b915050608084015160a084015260a084015160c08401528091505092915050565b602080825282518282018190526000918401906040840190835b818110156115bf5783518352602093840193909201916001016115a1565b509095945050505050565b634e487b7160e01b600052604160045260246000fd5b600082601f8301126115f157600080fd5b81356001600160401b0381111561160a5761160a6115ca565b604051601f8201601f19908116603f011681016001600160401b0381118282101715611638576116386115ca565b60405281815283820160200185101561165057600080fd5b816020850160208301376000918101602001919091529392505050565b8035801515811461167d57600080fd5b919050565b6000806000806080858703121561169857600080fd5b8435935060208501356001600160401b038111156116b557600080fd5b6116c1878288016115e0565b93505060408501356001600160401b038111156116dd57600080fd5b6116e9878288016115e0565b9250506116f86060860161166d565b905092959194509250565b6000806000806080858703121561171957600080fd5b8435935060208501356001600160401b0381111561173657600080fd5b611742878288016115e0565b93505060408501356001600160401b0381111561175e57600080fd5b61176a878288016115e0565b92505060608501356001600160401b0381111561178657600080fd5b611792878288016115e0565b91505092959194509250565b86815260c0602082015260006117b760c0830188611410565b82810360408401526117c98188611410565b905082810360608401526117dd8187611410565b6080840195909552505060a00152949350505050565b6000806040838503121561180657600080fd5b8235915060208301356001600160401b0381111561182357600080fd5b61182f858286016115e0565b9150509250929050565b60008060006060848603121561184e57600080fd5b83356001600160401b0381111561186457600080fd5b611870868287016115e0565b93505060208401356001600160401b0381111561188c57600080fd5b611898868287016115e0565b9250506118a76040850161166d565b90509250925092565b6000602082840312156118c257600080fd5b81356001600160a01b03811681146114b457600080fd5b600080604083850312156118ec57600080fd5b82356001600160401b0381111561190257600080fd5b61190e858286016115e0565b92505060208301356001600160401b0381111561182357600080fd5b600181811c9082168061193e57607f821691505b60208210810361195e57634e487b7160e01b600052602260045260246000fd5b50919050565b602080825260149082015273506f737420646f6573206e6f742065786973742160601b604082015260600190565b634e487b7160e01b600052601160045260246000fd5b808201808211156113cd576113cd611992565b601f821115611a0557806000526020600020601f840160051c810160208510156119e25750805b601f840160051c820191505b81811015611a0257600081556001016119ee565b50505b505050565b818103611a15575050565b611a1f825461192a565b6001600160401b03811115611a3657611a366115ca565b611a4a81611a44845461192a565b846119bb565b6000601f821160018114611a815760008315611a665750848201545b600184901b600019600386901b1c198216175b855550611a02565b600085815260209020601f19841690600086815260209020845b83811015611abb5782860154825560019586019590910190602001611a9b565b5085831015611ad95781850154600019600388901b60f8161c191681555b5050505050600190811b01905550565b818103818111156113cd576113cd611992565b600060018201611b0e57611b0e611992565b5060010190565b81516001600160401b03811115611b2e57611b2e6115ca565b611b3c81611a44845461192a565b6020601f821160018114611b6e5760008315611a66575081850151600184901b600019600386901b1c19821617611a79565b600084815260208120601f198516915b82811015611b9e5787850151825560209485019460019092019101611b7e565b5084821015611bbc5786840151600019600387901b60f8161c191681555b50505050600190811b01905550565b60008251611bdd8184602087016113ec565b919091019291505056fea2646970667358221220c8761234481679d853c1d4ea47da77e34a3c7bef436987feec891c92466b401b64736f6c634300081a0033","linkReferences":{}},"methodIdentifiers":{"commentIdIncrement()":"0e98745e","comments(uint256)":"8ebb4c15","compareStringsbyBytes(string,string)":"e9a734ff","createComment(uint256,string,string,bool)":"7e9545b4","createPoll(uint256,string,string,string)":"87bcfd68","createPost(string,string,bool)":"c250bd81","downVoteComment(uint256)":"8e07bba2","downVotePost(uint256)":"24844ea3","getComment(uint256)":"0800e300","getCommentsFromPost(uint256)":"40288e1c","getPoll(uint256)":"1a8cbcaa","getPollFromPost(uint256)":"28fba232","getPost(uint256)":"40731c24","getPostsFromAddress(address)":"c60fa0fa","pollIdIncrement()":"3ceb7c86","polls(uint256)":"ac2f0074","postIdIncrement()":"5fd8cf12","postToPoll(uint256)":"6cc3f3c6","posts(uint256)":"0b1e7f83","upVoteComment(uint256)":"138c40d1","upVotePollOption(uint256,string)":"bc8fd685","upVotePost(uint256)":"21828f82"},"id":25}